{
	"contracts/Faucet.sol": {
		"PlaypointFaucet": {
			"abi": [
				{
					"inputs": [
						{
							"internalType": "address",
							"name": "_token",
							"type": "address"
						}
					],
					"stateMutability": "nonpayable",
					"type": "constructor"
				},
				{
					"inputs": [],
					"name": "PPTTToken",
					"outputs": [
						{
							"internalType": "contract IERC20",
							"name": "",
							"type": "address"
						}
					],
					"stateMutability": "view",
					"type": "function"
				},
				{
					"inputs": [],
					"name": "requestPPTT",
					"outputs": [
						{
							"internalType": "uint8",
							"name": "",
							"type": "uint8"
						}
					],
					"stateMutability": "nonpayable",
					"type": "function"
				},
				{
					"inputs": [
						{
							"internalType": "address",
							"name": "",
							"type": "address"
						}
					],
					"name": "users",
					"outputs": [
						{
							"internalType": "uint8",
							"name": "",
							"type": "uint8"
						}
					],
					"stateMutability": "view",
					"type": "function"
				}
			],
			"devdoc": {
				"kind": "dev",
				"methods": {},
				"version": 1
			},
			"evm": {
				"assembly": "    /* \"contracts/Faucet.sol\":167:854  contract PlaypointFaucet{... */\n  mstore(0x40, 0x80)\n    /* \"contracts/Faucet.sol\":297:367  constructor(address _token){... */\n  callvalue\n  dup1\n  iszero\n  tag_1\n  jumpi\n  0x00\n  dup1\n  revert\ntag_1:\n  pop\n  mload(0x40)\n  sub(codesize, bytecodeSize)\n  dup1\n  bytecodeSize\n  dup4\n  codecopy\n  dup2\n  dup2\n  add\n  0x40\n  mstore\n  dup2\n  add\n  swap1\n  tag_2\n  swap2\n  swap1\n  tag_3\n  jump\t// in\ntag_2:\n    /* \"contracts/Faucet.sol\":353:359  _token */\n  dup1\n    /* \"contracts/Faucet.sol\":334:343  PPTTToken */\n  0x00\n  dup1\n    /* \"contracts/Faucet.sol\":334:360  PPTTToken = IERC20(_token) */\n  0x0100\n  exp\n  dup2\n  sload\n  dup2\n  0xffffffffffffffffffffffffffffffffffffffff\n  mul\n  not\n  and\n  swap1\n  dup4\n  0xffffffffffffffffffffffffffffffffffffffff\n  and\n  mul\n  or\n  swap1\n  sstore\n  pop\n    /* \"contracts/Faucet.sol\":297:367  constructor(address _token){... */\n  pop\n    /* \"contracts/Faucet.sol\":167:854  contract PlaypointFaucet{... */\n  jump(tag_6)\n    /* \"#utility.yul\":7:150   */\ntag_8:\n    /* \"#utility.yul\":64:69   */\n  0x00\n    /* \"#utility.yul\":95:101   */\n  dup2\n    /* \"#utility.yul\":89:102   */\n  mload\n    /* \"#utility.yul\":80:102   */\n  swap1\n  pop\n    /* \"#utility.yul\":111:144   */\n  tag_10\n    /* \"#utility.yul\":138:143   */\n  dup2\n    /* \"#utility.yul\":111:144   */\n  tag_11\n  jump\t// in\ntag_10:\n    /* \"#utility.yul\":7:150   */\n  swap3\n  swap2\n  pop\n  pop\n  jump\t// out\n    /* \"#utility.yul\":156:507   */\ntag_3:\n    /* \"#utility.yul\":226:232   */\n  0x00\n    /* \"#utility.yul\":275:277   */\n  0x20\n    /* \"#utility.yul\":263:272   */\n  dup3\n    /* \"#utility.yul\":254:261   */\n  dup5\n    /* \"#utility.yul\":250:273   */\n  sub\n    /* \"#utility.yul\":246:278   */\n  slt\n    /* \"#utility.yul\":243:362   */\n  iszero\n  tag_13\n  jumpi\n    /* \"#utility.yul\":281:360   */\n  tag_14\n  tag_15\n  jump\t// in\ntag_14:\n    /* \"#utility.yul\":243:362   */\ntag_13:\n    /* \"#utility.yul\":401:402   */\n  0x00\n    /* \"#utility.yul\":426:490   */\n  tag_16\n    /* \"#utility.yul\":482:489   */\n  dup5\n    /* \"#utility.yul\":473:479   */\n  dup3\n    /* \"#utility.yul\":462:471   */\n  dup6\n    /* \"#utility.yul\":458:480   */\n  add\n    /* \"#utility.yul\":426:490   */\n  tag_8\n  jump\t// in\ntag_16:\n    /* \"#utility.yul\":416:490   */\n  swap2\n  pop\n    /* \"#utility.yul\":372:500   */\n  pop\n    /* \"#utility.yul\":156:507   */\n  swap3\n  swap2\n  pop\n  pop\n  jump\t// out\n    /* \"#utility.yul\":594:690   */\ntag_19:\n    /* \"#utility.yul\":631:638   */\n  0x00\n    /* \"#utility.yul\":660:684   */\n  tag_21\n    /* \"#utility.yul\":678:683   */\n  dup3\n    /* \"#utility.yul\":660:684   */\n  tag_22\n  jump\t// in\ntag_21:\n    /* \"#utility.yul\":649:684   */\n  swap1\n  pop\n    /* \"#utility.yul\":594:690   */\n  swap2\n  swap1\n  pop\n  jump\t// out\n    /* \"#utility.yul\":696:822   */\ntag_22:\n    /* \"#utility.yul\":733:740   */\n  0x00\n    /* \"#utility.yul\":773:815   */\n  0xffffffffffffffffffffffffffffffffffffffff\n    /* \"#utility.yul\":766:771   */\n  dup3\n    /* \"#utility.yul\":762:816   */\n  and\n    /* \"#utility.yul\":751:816   */\n  swap1\n  pop\n    /* \"#utility.yul\":696:822   */\n  swap2\n  swap1\n  pop\n  jump\t// out\n    /* \"#utility.yul\":951:1068   */\ntag_15:\n    /* \"#utility.yul\":1060:1061   */\n  0x00\n    /* \"#utility.yul\":1057:1058   */\n  dup1\n    /* \"#utility.yul\":1050:1062   */\n  revert\n    /* \"#utility.yul\":1074:1196   */\ntag_11:\n    /* \"#utility.yul\":1147:1171   */\n  tag_28\n    /* \"#utility.yul\":1165:1170   */\n  dup2\n    /* \"#utility.yul\":1147:1171   */\n  tag_19\n  jump\t// in\ntag_28:\n    /* \"#utility.yul\":1140:1145   */\n  dup2\n    /* \"#utility.yul\":1137:1172   */\n  eq\n    /* \"#utility.yul\":1127:1190   */\n  tag_29\n  jumpi\n    /* \"#utility.yul\":1186:1187   */\n  0x00\n    /* \"#utility.yul\":1183:1184   */\n  dup1\n    /* \"#utility.yul\":1176:1188   */\n  revert\n    /* \"#utility.yul\":1127:1190   */\ntag_29:\n    /* \"#utility.yul\":1074:1196   */\n  pop\n  jump\t// out\n    /* \"contracts/Faucet.sol\":167:854  contract PlaypointFaucet{... */\ntag_6:\n  dataSize(sub_0)\n  dup1\n  dataOffset(sub_0)\n  0x00\n  codecopy\n  0x00\n  return\nstop\n\nsub_0: assembly {\n        /* \"contracts/Faucet.sol\":167:854  contract PlaypointFaucet{... */\n      mstore(0x40, 0x80)\n      callvalue\n      dup1\n      iszero\n      tag_1\n      jumpi\n      0x00\n      dup1\n      revert\n    tag_1:\n      pop\n      jumpi(tag_2, lt(calldatasize, 0x04))\n      shr(0xe0, calldataload(0x00))\n      dup1\n      0x44e83453\n      eq\n      tag_3\n      jumpi\n      dup1\n      0x7517eae9\n      eq\n      tag_4\n      jumpi\n      dup1\n      0xa87430ba\n      eq\n      tag_5\n      jumpi\n    tag_2:\n      0x00\n      dup1\n      revert\n        /* \"contracts/Faucet.sol\":643:852  function requestPPTT() _checkRequest(msg.sender) reentrancyGuard public returns (uint8){... */\n    tag_3:\n      tag_6\n      tag_7\n      jump\t// in\n    tag_6:\n      mload(0x40)\n      tag_8\n      swap2\n      swap1\n      tag_9\n      jump\t// in\n    tag_8:\n      mload(0x40)\n      dup1\n      swap2\n      sub\n      swap1\n      return\n        /* \"contracts/Faucet.sol\":197:220  IERC20 public PPTTToken */\n    tag_4:\n      tag_10\n      tag_11\n      jump\t// in\n    tag_10:\n      mload(0x40)\n      tag_12\n      swap2\n      swap1\n      tag_13\n      jump\t// in\n    tag_12:\n      mload(0x40)\n      dup1\n      swap2\n      sub\n      swap1\n      return\n        /* \"contracts/Faucet.sol\":226:264  mapping(address => uint8) public users */\n    tag_5:\n      tag_14\n      0x04\n      dup1\n      calldatasize\n      sub\n      dup2\n      add\n      swap1\n      tag_15\n      swap2\n      swap1\n      tag_16\n      jump\t// in\n    tag_15:\n      tag_17\n      jump\t// in\n    tag_14:\n      mload(0x40)\n      tag_18\n      swap2\n      swap1\n      tag_9\n      jump\t// in\n    tag_18:\n      mload(0x40)\n      dup1\n      swap2\n      sub\n      swap1\n      return\n        /* \"contracts/Faucet.sol\":643:852  function requestPPTT() _checkRequest(msg.sender) reentrancyGuard public returns (uint8){... */\n    tag_7:\n        /* \"contracts/Faucet.sol\":724:729  uint8 */\n      0x00\n        /* \"contracts/Faucet.sol\":680:690  msg.sender */\n      caller\n        /* \"contracts/Faucet.sol\":569:570  1 */\n      0x01\n        /* \"contracts/Faucet.sol\":553:558  users */\n      dup1\n        /* \"contracts/Faucet.sol\":553:565  users[_user] */\n      0x00\n        /* \"contracts/Faucet.sol\":559:564  _user */\n      dup4\n        /* \"contracts/Faucet.sol\":553:565  users[_user] */\n      0xffffffffffffffffffffffffffffffffffffffff\n      and\n      0xffffffffffffffffffffffffffffffffffffffff\n      and\n      dup2\n      mstore\n      0x20\n      add\n      swap1\n      dup2\n      mstore\n      0x20\n      add\n      0x00\n      keccak256\n      0x00\n      swap1\n      sload\n      swap1\n      0x0100\n      exp\n      swap1\n      div\n      0xff\n      and\n        /* \"contracts/Faucet.sol\":553:570  users[_user] != 1 */\n      0xff\n      and\n      eq\n      iszero\n        /* \"contracts/Faucet.sol\":545:619  require(users[_user] != 1, \"User has already request limited PPTT Token!\") */\n      tag_20\n      jumpi\n      mload(0x40)\n      0x08c379a000000000000000000000000000000000000000000000000000000000\n      dup2\n      mstore\n      0x04\n      add\n      tag_21\n      swap1\n      tag_22\n      jump\t// in\n    tag_21:\n      mload(0x40)\n      dup1\n      swap2\n      sub\n      swap1\n      revert\n    tag_20:\n        /* \"contracts/Faucet.sol\":419:425  locked */\n      0x02\n      0x00\n      swap1\n      sload\n      swap1\n      0x0100\n      exp\n      swap1\n      div\n      0xff\n      and\n        /* \"contracts/Faucet.sol\":418:425  !locked */\n      iszero\n        /* \"contracts/Faucet.sol\":410:426  require(!locked) */\n      tag_24\n      jumpi\n      0x00\n      dup1\n      revert\n    tag_24:\n        /* \"contracts/Faucet.sol\":445:449  true */\n      0x01\n        /* \"contracts/Faucet.sol\":436:442  locked */\n      0x02\n      0x00\n        /* \"contracts/Faucet.sol\":436:449  locked = true */\n      0x0100\n      exp\n      dup2\n      sload\n      dup2\n      0xff\n      mul\n      not\n      and\n      swap1\n      dup4\n      iszero\n      iszero\n      mul\n      or\n      swap1\n      sstore\n      pop\n        /* \"contracts/Faucet.sol\":740:749  PPTTToken */\n      0x00\n      dup1\n      sload\n      swap1\n      0x0100\n      exp\n      swap1\n      div\n      0xffffffffffffffffffffffffffffffffffffffff\n      and\n        /* \"contracts/Faucet.sol\":740:758  PPTTToken.transfer */\n      0xffffffffffffffffffffffffffffffffffffffff\n      and\n      0xa9059cbb\n        /* \"contracts/Faucet.sol\":759:769  msg.sender */\n      caller\n        /* \"contracts/Faucet.sol\":771:795  500000000000000000000000 */\n      0x69e10de76676d0800000\n        /* \"contracts/Faucet.sol\":740:796  PPTTToken.transfer(msg.sender, 500000000000000000000000) */\n      mload(0x40)\n      dup4\n      0xffffffff\n      and\n      0xe0\n      shl\n      dup2\n      mstore\n      0x04\n      add\n      tag_26\n      swap3\n      swap2\n      swap1\n      tag_27\n      jump\t// in\n    tag_26:\n      0x20\n      mload(0x40)\n      dup1\n      dup4\n      sub\n      dup2\n      0x00\n      dup8\n      dup1\n      extcodesize\n      iszero\n      dup1\n      iszero\n      tag_28\n      jumpi\n      0x00\n      dup1\n      revert\n    tag_28:\n      pop\n      gas\n      call\n      iszero\n      dup1\n      iszero\n      tag_30\n      jumpi\n      returndatasize\n      0x00\n      dup1\n      returndatacopy\n      revert(0x00, returndatasize)\n    tag_30:\n      pop\n      pop\n      pop\n      pop\n      mload(0x40)\n      returndatasize\n      not(0x1f)\n      0x1f\n      dup3\n      add\n      and\n      dup3\n      add\n      dup1\n      0x40\n      mstore\n      pop\n      dup2\n      add\n      swap1\n      tag_31\n      swap2\n      swap1\n      tag_32\n      jump\t// in\n    tag_31:\n      pop\n        /* \"contracts/Faucet.sol\":826:827  1 */\n      0x01\n        /* \"contracts/Faucet.sol\":806:811  users */\n      dup1\n        /* \"contracts/Faucet.sol\":806:823  users[msg.sender] */\n      0x00\n        /* \"contracts/Faucet.sol\":812:822  msg.sender */\n      caller\n        /* \"contracts/Faucet.sol\":806:823  users[msg.sender] */\n      0xffffffffffffffffffffffffffffffffffffffff\n      and\n      0xffffffffffffffffffffffffffffffffffffffff\n      and\n      dup2\n      mstore\n      0x20\n      add\n      swap1\n      dup2\n      mstore\n      0x20\n      add\n      0x00\n      keccak256\n      0x00\n        /* \"contracts/Faucet.sol\":806:827  users[msg.sender] = 1 */\n      0x0100\n      exp\n      dup2\n      sload\n      dup2\n      0xff\n      mul\n      not\n      and\n      swap1\n      dup4\n      0xff\n      and\n      mul\n      or\n      swap1\n      sstore\n      pop\n        /* \"contracts/Faucet.sol\":844:845  1 */\n      0x01\n        /* \"contracts/Faucet.sol\":837:845  return 1 */\n      swap2\n      pop\n        /* \"contracts/Faucet.sol\":479:484  false */\n      0x00\n        /* \"contracts/Faucet.sol\":470:476  locked */\n      0x02\n      0x00\n        /* \"contracts/Faucet.sol\":470:484  locked = false */\n      0x0100\n      exp\n      dup2\n      sload\n      dup2\n      0xff\n      mul\n      not\n      and\n      swap1\n      dup4\n      iszero\n      iszero\n      mul\n      or\n      swap1\n      sstore\n      pop\n        /* \"contracts/Faucet.sol\":643:852  function requestPPTT() _checkRequest(msg.sender) reentrancyGuard public returns (uint8){... */\n      pop\n      swap1\n      jump\t// out\n        /* \"contracts/Faucet.sol\":197:220  IERC20 public PPTTToken */\n    tag_11:\n      0x00\n      dup1\n      sload\n      swap1\n      0x0100\n      exp\n      swap1\n      div\n      0xffffffffffffffffffffffffffffffffffffffff\n      and\n      dup2\n      jump\t// out\n        /* \"contracts/Faucet.sol\":226:264  mapping(address => uint8) public users */\n    tag_17:\n      mstore(0x20, 0x01)\n      dup1\n      0x00\n      mstore\n      keccak256(0x00, 0x40)\n      0x00\n      swap2\n      pop\n      sload\n      swap1\n      0x0100\n      exp\n      swap1\n      div\n      0xff\n      and\n      dup2\n      jump\t// out\n        /* \"#utility.yul\":7:146   */\n    tag_34:\n        /* \"#utility.yul\":53:58   */\n      0x00\n        /* \"#utility.yul\":91:97   */\n      dup2\n        /* \"#utility.yul\":78:98   */\n      calldataload\n        /* \"#utility.yul\":69:98   */\n      swap1\n      pop\n        /* \"#utility.yul\":107:140   */\n      tag_36\n        /* \"#utility.yul\":134:139   */\n      dup2\n        /* \"#utility.yul\":107:140   */\n      tag_37\n      jump\t// in\n    tag_36:\n        /* \"#utility.yul\":7:146   */\n      swap3\n      swap2\n      pop\n      pop\n      jump\t// out\n        /* \"#utility.yul\":152:289   */\n    tag_38:\n        /* \"#utility.yul\":206:211   */\n      0x00\n        /* \"#utility.yul\":237:243   */\n      dup2\n        /* \"#utility.yul\":231:244   */\n      mload\n        /* \"#utility.yul\":222:244   */\n      swap1\n      pop\n        /* \"#utility.yul\":253:283   */\n      tag_40\n        /* \"#utility.yul\":277:282   */\n      dup2\n        /* \"#utility.yul\":253:283   */\n      tag_41\n      jump\t// in\n    tag_40:\n        /* \"#utility.yul\":152:289   */\n      swap3\n      swap2\n      pop\n      pop\n      jump\t// out\n        /* \"#utility.yul\":295:624   */\n    tag_16:\n        /* \"#utility.yul\":354:360   */\n      0x00\n        /* \"#utility.yul\":403:405   */\n      0x20\n        /* \"#utility.yul\":391:400   */\n      dup3\n        /* \"#utility.yul\":382:389   */\n      dup5\n        /* \"#utility.yul\":378:401   */\n      sub\n        /* \"#utility.yul\":374:406   */\n      slt\n        /* \"#utility.yul\":371:490   */\n      iszero\n      tag_43\n      jumpi\n        /* \"#utility.yul\":409:488   */\n      tag_44\n      tag_45\n      jump\t// in\n    tag_44:\n        /* \"#utility.yul\":371:490   */\n    tag_43:\n        /* \"#utility.yul\":529:530   */\n      0x00\n        /* \"#utility.yul\":554:607   */\n      tag_46\n        /* \"#utility.yul\":599:606   */\n      dup5\n        /* \"#utility.yul\":590:596   */\n      dup3\n        /* \"#utility.yul\":579:588   */\n      dup6\n        /* \"#utility.yul\":575:597   */\n      add\n        /* \"#utility.yul\":554:607   */\n      tag_34\n      jump\t// in\n    tag_46:\n        /* \"#utility.yul\":544:607   */\n      swap2\n      pop\n        /* \"#utility.yul\":500:617   */\n      pop\n        /* \"#utility.yul\":295:624   */\n      swap3\n      swap2\n      pop\n      pop\n      jump\t// out\n        /* \"#utility.yul\":630:975   */\n    tag_32:\n        /* \"#utility.yul\":697:703   */\n      0x00\n        /* \"#utility.yul\":746:748   */\n      0x20\n        /* \"#utility.yul\":734:743   */\n      dup3\n        /* \"#utility.yul\":725:732   */\n      dup5\n        /* \"#utility.yul\":721:744   */\n      sub\n        /* \"#utility.yul\":717:749   */\n      slt\n        /* \"#utility.yul\":714:833   */\n      iszero\n      tag_48\n      jumpi\n        /* \"#utility.yul\":752:831   */\n      tag_49\n      tag_45\n      jump\t// in\n    tag_49:\n        /* \"#utility.yul\":714:833   */\n    tag_48:\n        /* \"#utility.yul\":872:873   */\n      0x00\n        /* \"#utility.yul\":897:958   */\n      tag_50\n        /* \"#utility.yul\":950:957   */\n      dup5\n        /* \"#utility.yul\":941:947   */\n      dup3\n        /* \"#utility.yul\":930:939   */\n      dup6\n        /* \"#utility.yul\":926:948   */\n      add\n        /* \"#utility.yul\":897:958   */\n      tag_38\n      jump\t// in\n    tag_50:\n        /* \"#utility.yul\":887:958   */\n      swap2\n      pop\n        /* \"#utility.yul\":843:968   */\n      pop\n        /* \"#utility.yul\":630:975   */\n      swap3\n      swap2\n      pop\n      pop\n      jump\t// out\n        /* \"#utility.yul\":981:1099   */\n    tag_51:\n        /* \"#utility.yul\":1068:1092   */\n      tag_53\n        /* \"#utility.yul\":1086:1091   */\n      dup2\n        /* \"#utility.yul\":1068:1092   */\n      tag_54\n      jump\t// in\n    tag_53:\n        /* \"#utility.yul\":1063:1066   */\n      dup3\n        /* \"#utility.yul\":1056:1093   */\n      mstore\n        /* \"#utility.yul\":981:1099   */\n      pop\n      pop\n      jump\t// out\n        /* \"#utility.yul\":1105:1264   */\n    tag_55:\n        /* \"#utility.yul\":1206:1257   */\n      tag_57\n        /* \"#utility.yul\":1251:1256   */\n      dup2\n        /* \"#utility.yul\":1206:1257   */\n      tag_58\n      jump\t// in\n    tag_57:\n        /* \"#utility.yul\":1201:1204   */\n      dup3\n        /* \"#utility.yul\":1194:1258   */\n      mstore\n        /* \"#utility.yul\":1105:1264   */\n      pop\n      pop\n      jump\t// out\n        /* \"#utility.yul\":1270:1463   */\n    tag_59:\n        /* \"#utility.yul\":1388:1456   */\n      tag_61\n        /* \"#utility.yul\":1450:1455   */\n      dup2\n        /* \"#utility.yul\":1388:1456   */\n      tag_62\n      jump\t// in\n    tag_61:\n        /* \"#utility.yul\":1383:1386   */\n      dup3\n        /* \"#utility.yul\":1376:1457   */\n      mstore\n        /* \"#utility.yul\":1270:1463   */\n      pop\n      pop\n      jump\t// out\n        /* \"#utility.yul\":1469:1835   */\n    tag_63:\n        /* \"#utility.yul\":1611:1614   */\n      0x00\n        /* \"#utility.yul\":1632:1699   */\n      tag_65\n        /* \"#utility.yul\":1696:1698   */\n      0x2c\n        /* \"#utility.yul\":1691:1694   */\n      dup4\n        /* \"#utility.yul\":1632:1699   */\n      tag_66\n      jump\t// in\n    tag_65:\n        /* \"#utility.yul\":1625:1699   */\n      swap2\n      pop\n        /* \"#utility.yul\":1708:1801   */\n      tag_67\n        /* \"#utility.yul\":1797:1800   */\n      dup3\n        /* \"#utility.yul\":1708:1801   */\n      tag_68\n      jump\t// in\n    tag_67:\n        /* \"#utility.yul\":1826:1828   */\n      0x40\n        /* \"#utility.yul\":1821:1824   */\n      dup3\n        /* \"#utility.yul\":1817:1829   */\n      add\n        /* \"#utility.yul\":1810:1829   */\n      swap1\n      pop\n        /* \"#utility.yul\":1469:1835   */\n      swap2\n      swap1\n      pop\n      jump\t// out\n        /* \"#utility.yul\":1841:1953   */\n    tag_69:\n        /* \"#utility.yul\":1924:1946   */\n      tag_71\n        /* \"#utility.yul\":1940:1945   */\n      dup2\n        /* \"#utility.yul\":1924:1946   */\n      tag_72\n      jump\t// in\n    tag_71:\n        /* \"#utility.yul\":1919:1922   */\n      dup3\n        /* \"#utility.yul\":1912:1947   */\n      mstore\n        /* \"#utility.yul\":1841:1953   */\n      pop\n      pop\n      jump\t// out\n        /* \"#utility.yul\":1959:2353   */\n    tag_27:\n        /* \"#utility.yul\":2111:2115   */\n      0x00\n        /* \"#utility.yul\":2149:2151   */\n      0x40\n        /* \"#utility.yul\":2138:2147   */\n      dup3\n        /* \"#utility.yul\":2134:2152   */\n      add\n        /* \"#utility.yul\":2126:2152   */\n      swap1\n      pop\n        /* \"#utility.yul\":2162:2233   */\n      tag_74\n        /* \"#utility.yul\":2230:2231   */\n      0x00\n        /* \"#utility.yul\":2219:2228   */\n      dup4\n        /* \"#utility.yul\":2215:2232   */\n      add\n        /* \"#utility.yul\":2206:2212   */\n      dup6\n        /* \"#utility.yul\":2162:2233   */\n      tag_51\n      jump\t// in\n    tag_74:\n        /* \"#utility.yul\":2243:2346   */\n      tag_75\n        /* \"#utility.yul\":2342:2344   */\n      0x20\n        /* \"#utility.yul\":2331:2340   */\n      dup4\n        /* \"#utility.yul\":2327:2345   */\n      add\n        /* \"#utility.yul\":2318:2324   */\n      dup5\n        /* \"#utility.yul\":2243:2346   */\n      tag_59\n      jump\t// in\n    tag_75:\n        /* \"#utility.yul\":1959:2353   */\n      swap4\n      swap3\n      pop\n      pop\n      pop\n      jump\t// out\n        /* \"#utility.yul\":2359:2609   */\n    tag_13:\n        /* \"#utility.yul\":2466:2470   */\n      0x00\n        /* \"#utility.yul\":2504:2506   */\n      0x20\n        /* \"#utility.yul\":2493:2502   */\n      dup3\n        /* \"#utility.yul\":2489:2507   */\n      add\n        /* \"#utility.yul\":2481:2507   */\n      swap1\n      pop\n        /* \"#utility.yul\":2517:2602   */\n      tag_77\n        /* \"#utility.yul\":2599:2600   */\n      0x00\n        /* \"#utility.yul\":2588:2597   */\n      dup4\n        /* \"#utility.yul\":2584:2601   */\n      add\n        /* \"#utility.yul\":2575:2581   */\n      dup5\n        /* \"#utility.yul\":2517:2602   */\n      tag_55\n      jump\t// in\n    tag_77:\n        /* \"#utility.yul\":2359:2609   */\n      swap3\n      swap2\n      pop\n      pop\n      jump\t// out\n        /* \"#utility.yul\":2615:3034   */\n    tag_22:\n        /* \"#utility.yul\":2781:2785   */\n      0x00\n        /* \"#utility.yul\":2819:2821   */\n      0x20\n        /* \"#utility.yul\":2808:2817   */\n      dup3\n        /* \"#utility.yul\":2804:2822   */\n      add\n        /* \"#utility.yul\":2796:2822   */\n      swap1\n      pop\n        /* \"#utility.yul\":2868:2877   */\n      dup2\n        /* \"#utility.yul\":2862:2866   */\n      dup2\n        /* \"#utility.yul\":2858:2878   */\n      sub\n        /* \"#utility.yul\":2854:2855   */\n      0x00\n        /* \"#utility.yul\":2843:2852   */\n      dup4\n        /* \"#utility.yul\":2839:2856   */\n      add\n        /* \"#utility.yul\":2832:2879   */\n      mstore\n        /* \"#utility.yul\":2896:3027   */\n      tag_79\n        /* \"#utility.yul\":3022:3026   */\n      dup2\n        /* \"#utility.yul\":2896:3027   */\n      tag_63\n      jump\t// in\n    tag_79:\n        /* \"#utility.yul\":2888:3027   */\n      swap1\n      pop\n        /* \"#utility.yul\":2615:3034   */\n      swap2\n      swap1\n      pop\n      jump\t// out\n        /* \"#utility.yul\":3040:3254   */\n    tag_9:\n        /* \"#utility.yul\":3129:3133   */\n      0x00\n        /* \"#utility.yul\":3167:3169   */\n      0x20\n        /* \"#utility.yul\":3156:3165   */\n      dup3\n        /* \"#utility.yul\":3152:3170   */\n      add\n        /* \"#utility.yul\":3144:3170   */\n      swap1\n      pop\n        /* \"#utility.yul\":3180:3247   */\n      tag_81\n        /* \"#utility.yul\":3244:3245   */\n      0x00\n        /* \"#utility.yul\":3233:3242   */\n      dup4\n        /* \"#utility.yul\":3229:3246   */\n      add\n        /* \"#utility.yul\":3220:3226   */\n      dup5\n        /* \"#utility.yul\":3180:3247   */\n      tag_69\n      jump\t// in\n    tag_81:\n        /* \"#utility.yul\":3040:3254   */\n      swap3\n      swap2\n      pop\n      pop\n      jump\t// out\n        /* \"#utility.yul\":3341:3510   */\n    tag_66:\n        /* \"#utility.yul\":3425:3436   */\n      0x00\n        /* \"#utility.yul\":3459:3465   */\n      dup3\n        /* \"#utility.yul\":3454:3457   */\n      dup3\n        /* \"#utility.yul\":3447:3466   */\n      mstore\n        /* \"#utility.yul\":3499:3503   */\n      0x20\n        /* \"#utility.yul\":3494:3497   */\n      dup3\n        /* \"#utility.yul\":3490:3504   */\n      add\n        /* \"#utility.yul\":3475:3504   */\n      swap1\n      pop\n        /* \"#utility.yul\":3341:3510   */\n      swap3\n      swap2\n      pop\n      pop\n      jump\t// out\n        /* \"#utility.yul\":3516:3612   */\n    tag_54:\n        /* \"#utility.yul\":3553:3560   */\n      0x00\n        /* \"#utility.yul\":3582:3606   */\n      tag_86\n        /* \"#utility.yul\":3600:3605   */\n      dup3\n        /* \"#utility.yul\":3582:3606   */\n      tag_87\n      jump\t// in\n    tag_86:\n        /* \"#utility.yul\":3571:3606   */\n      swap1\n      pop\n        /* \"#utility.yul\":3516:3612   */\n      swap2\n      swap1\n      pop\n      jump\t// out\n        /* \"#utility.yul\":3618:3708   */\n    tag_88:\n        /* \"#utility.yul\":3652:3659   */\n      0x00\n        /* \"#utility.yul\":3695:3700   */\n      dup2\n        /* \"#utility.yul\":3688:3701   */\n      iszero\n        /* \"#utility.yul\":3681:3702   */\n      iszero\n        /* \"#utility.yul\":3670:3702   */\n      swap1\n      pop\n        /* \"#utility.yul\":3618:3708   */\n      swap2\n      swap1\n      pop\n      jump\t// out\n        /* \"#utility.yul\":3714:3840   */\n    tag_87:\n        /* \"#utility.yul\":3751:3758   */\n      0x00\n        /* \"#utility.yul\":3791:3833   */\n      0xffffffffffffffffffffffffffffffffffffffff\n        /* \"#utility.yul\":3784:3789   */\n      dup3\n        /* \"#utility.yul\":3780:3834   */\n      and\n        /* \"#utility.yul\":3769:3834   */\n      swap1\n      pop\n        /* \"#utility.yul\":3714:3840   */\n      swap2\n      swap1\n      pop\n      jump\t// out\n        /* \"#utility.yul\":3846:3923   */\n    tag_91:\n        /* \"#utility.yul\":3883:3890   */\n      0x00\n        /* \"#utility.yul\":3912:3917   */\n      dup2\n        /* \"#utility.yul\":3901:3917   */\n      swap1\n      pop\n        /* \"#utility.yul\":3846:3923   */\n      swap2\n      swap1\n      pop\n      jump\t// out\n        /* \"#utility.yul\":3929:4015   */\n    tag_72:\n        /* \"#utility.yul\":3964:3971   */\n      0x00\n        /* \"#utility.yul\":4004:4008   */\n      0xff\n        /* \"#utility.yul\":3997:4002   */\n      dup3\n        /* \"#utility.yul\":3993:4009   */\n      and\n        /* \"#utility.yul\":3982:4009   */\n      swap1\n      pop\n        /* \"#utility.yul\":3929:4015   */\n      swap2\n      swap1\n      pop\n      jump\t// out\n        /* \"#utility.yul\":4021:4161   */\n    tag_58:\n        /* \"#utility.yul\":4085:4094   */\n      0x00\n        /* \"#utility.yul\":4118:4155   */\n      tag_95\n        /* \"#utility.yul\":4149:4154   */\n      dup3\n        /* \"#utility.yul\":4118:4155   */\n      tag_96\n      jump\t// in\n    tag_95:\n        /* \"#utility.yul\":4105:4155   */\n      swap1\n      pop\n        /* \"#utility.yul\":4021:4161   */\n      swap2\n      swap1\n      pop\n      jump\t// out\n        /* \"#utility.yul\":4167:4311   */\n    tag_62:\n        /* \"#utility.yul\":4248:4257   */\n      0x00\n        /* \"#utility.yul\":4281:4305   */\n      tag_98\n        /* \"#utility.yul\":4299:4304   */\n      dup3\n        /* \"#utility.yul\":4281:4305   */\n      tag_91\n      jump\t// in\n    tag_98:\n        /* \"#utility.yul\":4268:4305   */\n      swap1\n      pop\n        /* \"#utility.yul\":4167:4311   */\n      swap2\n      swap1\n      pop\n      jump\t// out\n        /* \"#utility.yul\":4317:4443   */\n    tag_96:\n        /* \"#utility.yul\":4367:4376   */\n      0x00\n        /* \"#utility.yul\":4400:4437   */\n      tag_100\n        /* \"#utility.yul\":4431:4436   */\n      dup3\n        /* \"#utility.yul\":4400:4437   */\n      tag_101\n      jump\t// in\n    tag_100:\n        /* \"#utility.yul\":4387:4437   */\n      swap1\n      pop\n        /* \"#utility.yul\":4317:4443   */\n      swap2\n      swap1\n      pop\n      jump\t// out\n        /* \"#utility.yul\":4449:4562   */\n    tag_101:\n        /* \"#utility.yul\":4499:4508   */\n      0x00\n        /* \"#utility.yul\":4532:4556   */\n      tag_103\n        /* \"#utility.yul\":4550:4555   */\n      dup3\n        /* \"#utility.yul\":4532:4556   */\n      tag_87\n      jump\t// in\n    tag_103:\n        /* \"#utility.yul\":4519:4556   */\n      swap1\n      pop\n        /* \"#utility.yul\":4449:4562   */\n      swap2\n      swap1\n      pop\n      jump\t// out\n        /* \"#utility.yul\":4691:4808   */\n    tag_45:\n        /* \"#utility.yul\":4800:4801   */\n      0x00\n        /* \"#utility.yul\":4797:4798   */\n      dup1\n        /* \"#utility.yul\":4790:4802   */\n      revert\n        /* \"#utility.yul\":4814:5045   */\n    tag_68:\n        /* \"#utility.yul\":4954:4988   */\n      0x557365722068617320616c72656164792072657175657374206c696d69746564\n        /* \"#utility.yul\":4950:4951   */\n      0x00\n        /* \"#utility.yul\":4942:4948   */\n      dup3\n        /* \"#utility.yul\":4938:4952   */\n      add\n        /* \"#utility.yul\":4931:4989   */\n      mstore\n        /* \"#utility.yul\":5023:5037   */\n      0x205050545420546f6b656e210000000000000000000000000000000000000000\n        /* \"#utility.yul\":5018:5020   */\n      0x20\n        /* \"#utility.yul\":5010:5016   */\n      dup3\n        /* \"#utility.yul\":5006:5021   */\n      add\n        /* \"#utility.yul\":4999:5038   */\n      mstore\n        /* \"#utility.yul\":4814:5045   */\n      pop\n      jump\t// out\n        /* \"#utility.yul\":5051:5173   */\n    tag_37:\n        /* \"#utility.yul\":5124:5148   */\n      tag_109\n        /* \"#utility.yul\":5142:5147   */\n      dup2\n        /* \"#utility.yul\":5124:5148   */\n      tag_54\n      jump\t// in\n    tag_109:\n        /* \"#utility.yul\":5117:5122   */\n      dup2\n        /* \"#utility.yul\":5114:5149   */\n      eq\n        /* \"#utility.yul\":5104:5167   */\n      tag_110\n      jumpi\n        /* \"#utility.yul\":5163:5164   */\n      0x00\n        /* \"#utility.yul\":5160:5161   */\n      dup1\n        /* \"#utility.yul\":5153:5165   */\n      revert\n        /* \"#utility.yul\":5104:5167   */\n    tag_110:\n        /* \"#utility.yul\":5051:5173   */\n      pop\n      jump\t// out\n        /* \"#utility.yul\":5179:5295   */\n    tag_41:\n        /* \"#utility.yul\":5249:5270   */\n      tag_112\n        /* \"#utility.yul\":5264:5269   */\n      dup2\n        /* \"#utility.yul\":5249:5270   */\n      tag_88\n      jump\t// in\n    tag_112:\n        /* \"#utility.yul\":5242:5247   */\n      dup2\n        /* \"#utility.yul\":5239:5271   */\n      eq\n        /* \"#utility.yul\":5229:5289   */\n      tag_113\n      jumpi\n        /* \"#utility.yul\":5285:5286   */\n      0x00\n        /* \"#utility.yul\":5282:5283   */\n      dup1\n        /* \"#utility.yul\":5275:5287   */\n      revert\n        /* \"#utility.yul\":5229:5289   */\n    tag_113:\n        /* \"#utility.yul\":5179:5295   */\n      pop\n      jump\t// out\n\n    auxdata: 0xa26469706673582212200bdd440e09de049c131bb71e9402b3db9c1d209180c8862be9d0ce0c0d116e7264736f6c63430008070033\n}\n",
				"bytecode": {
					"linkReferences": {},
					"object": "608060405234801561001057600080fd5b506040516106d23803806106d28339818101604052810190610032919061008d565b806000806101000a81548173ffffffffffffffffffffffffffffffffffffffff021916908373ffffffffffffffffffffffffffffffffffffffff16021790555050610108565b600081519050610087816100f1565b92915050565b6000602082840312156100a3576100a26100ec565b5b60006100b184828501610078565b91505092915050565b60006100c5826100cc565b9050919050565b600073ffffffffffffffffffffffffffffffffffffffff82169050919050565b600080fd5b6100fa816100ba565b811461010557600080fd5b50565b6105bb806101176000396000f3fe608060405234801561001057600080fd5b50600436106100415760003560e01c806344e83453146100465780637517eae914610064578063a87430ba14610082575b600080fd5b61004e6100b2565b60405161005b919061043a565b60405180910390f35b61006c6102af565b60405161007991906103ff565b60405180910390f35b61009c6004803603810190610097919061031d565b6102d3565b6040516100a9919061043a565b60405180910390f35b60003360018060008373ffffffffffffffffffffffffffffffffffffffff1673ffffffffffffffffffffffffffffffffffffffff16815260200190815260200160002060009054906101000a900460ff1660ff161415610147576040517f08c379a000000000000000000000000000000000000000000000000000000000815260040161013e9061041a565b60405180910390fd5b600260009054906101000a900460ff161561016157600080fd5b6001600260006101000a81548160ff02191690831515021790555060008054906101000a900473ffffffffffffffffffffffffffffffffffffffff1673ffffffffffffffffffffffffffffffffffffffff1663a9059cbb336969e10de76676d08000006040518363ffffffff1660e01b81526004016101e19291906103d6565b602060405180830381600087803b1580156101fb57600080fd5b505af115801561020f573d6000803e3d6000fd5b505050506040513d601f19601f82011682018060405250810190610233919061034a565b5060018060003373ffffffffffffffffffffffffffffffffffffffff1673ffffffffffffffffffffffffffffffffffffffff16815260200190815260200160002060006101000a81548160ff021916908360ff160217905550600191506000600260006101000a81548160ff0219169083151502179055505090565b60008054906101000a900473ffffffffffffffffffffffffffffffffffffffff1681565b60016020528060005260406000206000915054906101000a900460ff1681565b60008135905061030281610557565b92915050565b6000815190506103178161056e565b92915050565b60006020828403121561033357610332610503565b5b6000610341848285016102f3565b91505092915050565b6000602082840312156103605761035f610503565b5b600061036e84828501610308565b91505092915050565b61038081610466565b82525050565b61038f816104bb565b82525050565b61039e816104cd565b82525050565b60006103b1602c83610455565b91506103bc82610508565b604082019050919050565b6103d0816104ae565b82525050565b60006040820190506103eb6000830185610377565b6103f86020830184610395565b9392505050565b60006020820190506104146000830184610386565b92915050565b60006020820190508181036000830152610433816103a4565b9050919050565b600060208201905061044f60008301846103c7565b92915050565b600082825260208201905092915050565b600061047182610484565b9050919050565b60008115159050919050565b600073ffffffffffffffffffffffffffffffffffffffff82169050919050565b6000819050919050565b600060ff82169050919050565b60006104c6826104df565b9050919050565b60006104d8826104a4565b9050919050565b60006104ea826104f1565b9050919050565b60006104fc82610484565b9050919050565b600080fd5b7f557365722068617320616c72656164792072657175657374206c696d6974656460008201527f205050545420546f6b656e210000000000000000000000000000000000000000602082015250565b61056081610466565b811461056b57600080fd5b50565b61057781610478565b811461058257600080fd5b5056fea26469706673582212200bdd440e09de049c131bb71e9402b3db9c1d209180c8862be9d0ce0c0d116e7264736f6c63430008070033",
					"opcodes": "PUSH1 0x80 PUSH1 0x40 MSTORE CALLVALUE DUP1 ISZERO PUSH2 0x10 JUMPI PUSH1 0x0 DUP1 REVERT JUMPDEST POP PUSH1 0x40 MLOAD PUSH2 0x6D2 CODESIZE SUB DUP1 PUSH2 0x6D2 DUP4 CODECOPY DUP2 DUP2 ADD PUSH1 0x40 MSTORE DUP2 ADD SWAP1 PUSH2 0x32 SWAP2 SWAP1 PUSH2 0x8D JUMP JUMPDEST DUP1 PUSH1 0x0 DUP1 PUSH2 0x100 EXP DUP2 SLOAD DUP2 PUSH20 0xFFFFFFFFFFFFFFFFFFFFFFFFFFFFFFFFFFFFFFFF MUL NOT AND SWAP1 DUP4 PUSH20 0xFFFFFFFFFFFFFFFFFFFFFFFFFFFFFFFFFFFFFFFF AND MUL OR SWAP1 SSTORE POP POP PUSH2 0x108 JUMP JUMPDEST PUSH1 0x0 DUP2 MLOAD SWAP1 POP PUSH2 0x87 DUP2 PUSH2 0xF1 JUMP JUMPDEST SWAP3 SWAP2 POP POP JUMP JUMPDEST PUSH1 0x0 PUSH1 0x20 DUP3 DUP5 SUB SLT ISZERO PUSH2 0xA3 JUMPI PUSH2 0xA2 PUSH2 0xEC JUMP JUMPDEST JUMPDEST PUSH1 0x0 PUSH2 0xB1 DUP5 DUP3 DUP6 ADD PUSH2 0x78 JUMP JUMPDEST SWAP2 POP POP SWAP3 SWAP2 POP POP JUMP JUMPDEST PUSH1 0x0 PUSH2 0xC5 DUP3 PUSH2 0xCC JUMP JUMPDEST SWAP1 POP SWAP2 SWAP1 POP JUMP JUMPDEST PUSH1 0x0 PUSH20 0xFFFFFFFFFFFFFFFFFFFFFFFFFFFFFFFFFFFFFFFF DUP3 AND SWAP1 POP SWAP2 SWAP1 POP JUMP JUMPDEST PUSH1 0x0 DUP1 REVERT JUMPDEST PUSH2 0xFA DUP2 PUSH2 0xBA JUMP JUMPDEST DUP2 EQ PUSH2 0x105 JUMPI PUSH1 0x0 DUP1 REVERT JUMPDEST POP JUMP JUMPDEST PUSH2 0x5BB DUP1 PUSH2 0x117 PUSH1 0x0 CODECOPY PUSH1 0x0 RETURN INVALID PUSH1 0x80 PUSH1 0x40 MSTORE CALLVALUE DUP1 ISZERO PUSH2 0x10 JUMPI PUSH1 0x0 DUP1 REVERT JUMPDEST POP PUSH1 0x4 CALLDATASIZE LT PUSH2 0x41 JUMPI PUSH1 0x0 CALLDATALOAD PUSH1 0xE0 SHR DUP1 PUSH4 0x44E83453 EQ PUSH2 0x46 JUMPI DUP1 PUSH4 0x7517EAE9 EQ PUSH2 0x64 JUMPI DUP1 PUSH4 0xA87430BA EQ PUSH2 0x82 JUMPI JUMPDEST PUSH1 0x0 DUP1 REVERT JUMPDEST PUSH2 0x4E PUSH2 0xB2 JUMP JUMPDEST PUSH1 0x40 MLOAD PUSH2 0x5B SWAP2 SWAP1 PUSH2 0x43A JUMP JUMPDEST PUSH1 0x40 MLOAD DUP1 SWAP2 SUB SWAP1 RETURN JUMPDEST PUSH2 0x6C PUSH2 0x2AF JUMP JUMPDEST PUSH1 0x40 MLOAD PUSH2 0x79 SWAP2 SWAP1 PUSH2 0x3FF JUMP JUMPDEST PUSH1 0x40 MLOAD DUP1 SWAP2 SUB SWAP1 RETURN JUMPDEST PUSH2 0x9C PUSH1 0x4 DUP1 CALLDATASIZE SUB DUP2 ADD SWAP1 PUSH2 0x97 SWAP2 SWAP1 PUSH2 0x31D JUMP JUMPDEST PUSH2 0x2D3 JUMP JUMPDEST PUSH1 0x40 MLOAD PUSH2 0xA9 SWAP2 SWAP1 PUSH2 0x43A JUMP JUMPDEST PUSH1 0x40 MLOAD DUP1 SWAP2 SUB SWAP1 RETURN JUMPDEST PUSH1 0x0 CALLER PUSH1 0x1 DUP1 PUSH1 0x0 DUP4 PUSH20 0xFFFFFFFFFFFFFFFFFFFFFFFFFFFFFFFFFFFFFFFF AND PUSH20 0xFFFFFFFFFFFFFFFFFFFFFFFFFFFFFFFFFFFFFFFF AND DUP2 MSTORE PUSH1 0x20 ADD SWAP1 DUP2 MSTORE PUSH1 0x20 ADD PUSH1 0x0 KECCAK256 PUSH1 0x0 SWAP1 SLOAD SWAP1 PUSH2 0x100 EXP SWAP1 DIV PUSH1 0xFF AND PUSH1 0xFF AND EQ ISZERO PUSH2 0x147 JUMPI PUSH1 0x40 MLOAD PUSH32 0x8C379A000000000000000000000000000000000000000000000000000000000 DUP2 MSTORE PUSH1 0x4 ADD PUSH2 0x13E SWAP1 PUSH2 0x41A JUMP JUMPDEST PUSH1 0x40 MLOAD DUP1 SWAP2 SUB SWAP1 REVERT JUMPDEST PUSH1 0x2 PUSH1 0x0 SWAP1 SLOAD SWAP1 PUSH2 0x100 EXP SWAP1 DIV PUSH1 0xFF AND ISZERO PUSH2 0x161 JUMPI PUSH1 0x0 DUP1 REVERT JUMPDEST PUSH1 0x1 PUSH1 0x2 PUSH1 0x0 PUSH2 0x100 EXP DUP2 SLOAD DUP2 PUSH1 0xFF MUL NOT AND SWAP1 DUP4 ISZERO ISZERO MUL OR SWAP1 SSTORE POP PUSH1 0x0 DUP1 SLOAD SWAP1 PUSH2 0x100 EXP SWAP1 DIV PUSH20 0xFFFFFFFFFFFFFFFFFFFFFFFFFFFFFFFFFFFFFFFF AND PUSH20 0xFFFFFFFFFFFFFFFFFFFFFFFFFFFFFFFFFFFFFFFF AND PUSH4 0xA9059CBB CALLER PUSH10 0x69E10DE76676D0800000 PUSH1 0x40 MLOAD DUP4 PUSH4 0xFFFFFFFF AND PUSH1 0xE0 SHL DUP2 MSTORE PUSH1 0x4 ADD PUSH2 0x1E1 SWAP3 SWAP2 SWAP1 PUSH2 0x3D6 JUMP JUMPDEST PUSH1 0x20 PUSH1 0x40 MLOAD DUP1 DUP4 SUB DUP2 PUSH1 0x0 DUP8 DUP1 EXTCODESIZE ISZERO DUP1 ISZERO PUSH2 0x1FB JUMPI PUSH1 0x0 DUP1 REVERT JUMPDEST POP GAS CALL ISZERO DUP1 ISZERO PUSH2 0x20F JUMPI RETURNDATASIZE PUSH1 0x0 DUP1 RETURNDATACOPY RETURNDATASIZE PUSH1 0x0 REVERT JUMPDEST POP POP POP POP PUSH1 0x40 MLOAD RETURNDATASIZE PUSH1 0x1F NOT PUSH1 0x1F DUP3 ADD AND DUP3 ADD DUP1 PUSH1 0x40 MSTORE POP DUP2 ADD SWAP1 PUSH2 0x233 SWAP2 SWAP1 PUSH2 0x34A JUMP JUMPDEST POP PUSH1 0x1 DUP1 PUSH1 0x0 CALLER PUSH20 0xFFFFFFFFFFFFFFFFFFFFFFFFFFFFFFFFFFFFFFFF AND PUSH20 0xFFFFFFFFFFFFFFFFFFFFFFFFFFFFFFFFFFFFFFFF AND DUP2 MSTORE PUSH1 0x20 ADD SWAP1 DUP2 MSTORE PUSH1 0x20 ADD PUSH1 0x0 KECCAK256 PUSH1 0x0 PUSH2 0x100 EXP DUP2 SLOAD DUP2 PUSH1 0xFF MUL NOT AND SWAP1 DUP4 PUSH1 0xFF AND MUL OR SWAP1 SSTORE POP PUSH1 0x1 SWAP2 POP PUSH1 0x0 PUSH1 0x2 PUSH1 0x0 PUSH2 0x100 EXP DUP2 SLOAD DUP2 PUSH1 0xFF MUL NOT AND SWAP1 DUP4 ISZERO ISZERO MUL OR SWAP1 SSTORE POP POP SWAP1 JUMP JUMPDEST PUSH1 0x0 DUP1 SLOAD SWAP1 PUSH2 0x100 EXP SWAP1 DIV PUSH20 0xFFFFFFFFFFFFFFFFFFFFFFFFFFFFFFFFFFFFFFFF AND DUP2 JUMP JUMPDEST PUSH1 0x1 PUSH1 0x20 MSTORE DUP1 PUSH1 0x0 MSTORE PUSH1 0x40 PUSH1 0x0 KECCAK256 PUSH1 0x0 SWAP2 POP SLOAD SWAP1 PUSH2 0x100 EXP SWAP1 DIV PUSH1 0xFF AND DUP2 JUMP JUMPDEST PUSH1 0x0 DUP2 CALLDATALOAD SWAP1 POP PUSH2 0x302 DUP2 PUSH2 0x557 JUMP JUMPDEST SWAP3 SWAP2 POP POP JUMP JUMPDEST PUSH1 0x0 DUP2 MLOAD SWAP1 POP PUSH2 0x317 DUP2 PUSH2 0x56E JUMP JUMPDEST SWAP3 SWAP2 POP POP JUMP JUMPDEST PUSH1 0x0 PUSH1 0x20 DUP3 DUP5 SUB SLT ISZERO PUSH2 0x333 JUMPI PUSH2 0x332 PUSH2 0x503 JUMP JUMPDEST JUMPDEST PUSH1 0x0 PUSH2 0x341 DUP5 DUP3 DUP6 ADD PUSH2 0x2F3 JUMP JUMPDEST SWAP2 POP POP SWAP3 SWAP2 POP POP JUMP JUMPDEST PUSH1 0x0 PUSH1 0x20 DUP3 DUP5 SUB SLT ISZERO PUSH2 0x360 JUMPI PUSH2 0x35F PUSH2 0x503 JUMP JUMPDEST JUMPDEST PUSH1 0x0 PUSH2 0x36E DUP5 DUP3 DUP6 ADD PUSH2 0x308 JUMP JUMPDEST SWAP2 POP POP SWAP3 SWAP2 POP POP JUMP JUMPDEST PUSH2 0x380 DUP2 PUSH2 0x466 JUMP JUMPDEST DUP3 MSTORE POP POP JUMP JUMPDEST PUSH2 0x38F DUP2 PUSH2 0x4BB JUMP JUMPDEST DUP3 MSTORE POP POP JUMP JUMPDEST PUSH2 0x39E DUP2 PUSH2 0x4CD JUMP JUMPDEST DUP3 MSTORE POP POP JUMP JUMPDEST PUSH1 0x0 PUSH2 0x3B1 PUSH1 0x2C DUP4 PUSH2 0x455 JUMP JUMPDEST SWAP2 POP PUSH2 0x3BC DUP3 PUSH2 0x508 JUMP JUMPDEST PUSH1 0x40 DUP3 ADD SWAP1 POP SWAP2 SWAP1 POP JUMP JUMPDEST PUSH2 0x3D0 DUP2 PUSH2 0x4AE JUMP JUMPDEST DUP3 MSTORE POP POP JUMP JUMPDEST PUSH1 0x0 PUSH1 0x40 DUP3 ADD SWAP1 POP PUSH2 0x3EB PUSH1 0x0 DUP4 ADD DUP6 PUSH2 0x377 JUMP JUMPDEST PUSH2 0x3F8 PUSH1 0x20 DUP4 ADD DUP5 PUSH2 0x395 JUMP JUMPDEST SWAP4 SWAP3 POP POP POP JUMP JUMPDEST PUSH1 0x0 PUSH1 0x20 DUP3 ADD SWAP1 POP PUSH2 0x414 PUSH1 0x0 DUP4 ADD DUP5 PUSH2 0x386 JUMP JUMPDEST SWAP3 SWAP2 POP POP JUMP JUMPDEST PUSH1 0x0 PUSH1 0x20 DUP3 ADD SWAP1 POP DUP2 DUP2 SUB PUSH1 0x0 DUP4 ADD MSTORE PUSH2 0x433 DUP2 PUSH2 0x3A4 JUMP JUMPDEST SWAP1 POP SWAP2 SWAP1 POP JUMP JUMPDEST PUSH1 0x0 PUSH1 0x20 DUP3 ADD SWAP1 POP PUSH2 0x44F PUSH1 0x0 DUP4 ADD DUP5 PUSH2 0x3C7 JUMP JUMPDEST SWAP3 SWAP2 POP POP JUMP JUMPDEST PUSH1 0x0 DUP3 DUP3 MSTORE PUSH1 0x20 DUP3 ADD SWAP1 POP SWAP3 SWAP2 POP POP JUMP JUMPDEST PUSH1 0x0 PUSH2 0x471 DUP3 PUSH2 0x484 JUMP JUMPDEST SWAP1 POP SWAP2 SWAP1 POP JUMP JUMPDEST PUSH1 0x0 DUP2 ISZERO ISZERO SWAP1 POP SWAP2 SWAP1 POP JUMP JUMPDEST PUSH1 0x0 PUSH20 0xFFFFFFFFFFFFFFFFFFFFFFFFFFFFFFFFFFFFFFFF DUP3 AND SWAP1 POP SWAP2 SWAP1 POP JUMP JUMPDEST PUSH1 0x0 DUP2 SWAP1 POP SWAP2 SWAP1 POP JUMP JUMPDEST PUSH1 0x0 PUSH1 0xFF DUP3 AND SWAP1 POP SWAP2 SWAP1 POP JUMP JUMPDEST PUSH1 0x0 PUSH2 0x4C6 DUP3 PUSH2 0x4DF JUMP JUMPDEST SWAP1 POP SWAP2 SWAP1 POP JUMP JUMPDEST PUSH1 0x0 PUSH2 0x4D8 DUP3 PUSH2 0x4A4 JUMP JUMPDEST SWAP1 POP SWAP2 SWAP1 POP JUMP JUMPDEST PUSH1 0x0 PUSH2 0x4EA DUP3 PUSH2 0x4F1 JUMP JUMPDEST SWAP1 POP SWAP2 SWAP1 POP JUMP JUMPDEST PUSH1 0x0 PUSH2 0x4FC DUP3 PUSH2 0x484 JUMP JUMPDEST SWAP1 POP SWAP2 SWAP1 POP JUMP JUMPDEST PUSH1 0x0 DUP1 REVERT JUMPDEST PUSH32 0x557365722068617320616C72656164792072657175657374206C696D69746564 PUSH1 0x0 DUP3 ADD MSTORE PUSH32 0x205050545420546F6B656E210000000000000000000000000000000000000000 PUSH1 0x20 DUP3 ADD MSTORE POP JUMP JUMPDEST PUSH2 0x560 DUP2 PUSH2 0x466 JUMP JUMPDEST DUP2 EQ PUSH2 0x56B JUMPI PUSH1 0x0 DUP1 REVERT JUMPDEST POP JUMP JUMPDEST PUSH2 0x577 DUP2 PUSH2 0x478 JUMP JUMPDEST DUP2 EQ PUSH2 0x582 JUMPI PUSH1 0x0 DUP1 REVERT JUMPDEST POP JUMP INVALID LOG2 PUSH5 0x6970667358 0x22 SLT KECCAK256 SIGNEXTEND 0xDD DIFFICULTY 0xE MULMOD 0xDE DIV SWAP13 SGT SHL 0xB7 0x1E SWAP5 MUL 0xB3 0xDB SWAP13 SAR KECCAK256 SWAP2 DUP1 0xC8 DUP7 0x2B 0xE9 0xD0 0xCE 0xC 0xD GT PUSH15 0x7264736F6C63430008070033000000 "
				},
				"gasEstimates": {
					"creation": {
						"codeDepositCost": "293400",
						"executionCost": "infinite",
						"totalCost": "infinite"
					},
					"external": {
						"PPTTToken()": "2597",
						"requestPPTT()": "infinite",
						"users(address)": "2867"
					}
				},
				"methodIdentifiers": {
					"PPTTToken()": "7517eae9",
					"requestPPTT()": "44e83453",
					"users(address)": "a87430ba"
				}
			},
			"storageLayout": {
				"storage": [
					{
						"astId": 5,
						"contract": "contracts/Faucet.sol:PlaypointFaucet",
						"label": "PPTTToken",
						"offset": 0,
						"slot": "0",
						"type": "t_contract(IERC20)163"
					},
					{
						"astId": 9,
						"contract": "contracts/Faucet.sol:PlaypointFaucet",
						"label": "users",
						"offset": 0,
						"slot": "1",
						"type": "t_mapping(t_address,t_uint8)"
					},
					{
						"astId": 11,
						"contract": "contracts/Faucet.sol:PlaypointFaucet",
						"label": "locked",
						"offset": 0,
						"slot": "2",
						"type": "t_bool"
					}
				],
				"types": {
					"t_address": {
						"encoding": "inplace",
						"label": "address",
						"numberOfBytes": "20"
					},
					"t_bool": {
						"encoding": "inplace",
						"label": "bool",
						"numberOfBytes": "1"
					},
					"t_contract(IERC20)163": {
						"encoding": "inplace",
						"label": "contract IERC20",
						"numberOfBytes": "20"
					},
					"t_mapping(t_address,t_uint8)": {
						"encoding": "mapping",
						"key": "t_address",
						"label": "mapping(address => uint8)",
						"numberOfBytes": "32",
						"value": "t_uint8"
					},
					"t_uint8": {
						"encoding": "inplace",
						"label": "uint8",
						"numberOfBytes": "1"
					}
				}
			},
			"userdoc": {
				"kind": "user",
				"methods": {},
				"version": 1
			}
		}
	}
}